:100000000C9446000C9465000C9465000C946500FB
:100010000C9465000C9465000C9465000C946500CC
:100020000C9465000C9465000C9465000C946500BC
:100030000C9465000C94D9010C9465000C94650037
:100040000C9465000C9465000C9465000C9465009C
:100050000C9465000C9465000C9465000C9465008C
:100060000C9465000C9465000C9465000C9465007C
:100070000C9465000C9465000C9465000C9465006C
:100080000C9465000C9465000C94650011241FBE4F
:10009000CFEFD0E4DEBFCDBF11E0A0E0B1E0E8EFEC
:1000A000F7E000E00BBF02C007900D92A033B1074C
:1000B000D9F721E0A0E3B1E001C01D92AA33B20755
:1000C000E1F70E94BA030C94FA030C940000CF935A
:1000D000DF93CDB7DEB781E00E948E000000DF9194
:1000E000CF910895CF93DF93CDB7DEB784E690E04C
:1000F0000E94320188E30E948E0086E00E948E00FA
:100100008FE00E948E0081E00E948E008AE090E0E5
:100110000E9432010000DF91CF910895CF93DF93C9
:100120001F92CDB7DEB789838BE290E02BE230E0FF
:10013000F90120812F7BFC01208388E290E0298156
:10014000FC0120838BE290E02BE230E0F90120817A
:100150002068FC01208300008BE290E02BE230E07D
:10016000F90120812F77FC01208382E090E00E943A
:10017000320100000F90DF91CF910895CF93DF936C
:100180001F92CDB7DEB789838BE290E02BE230E09F
:10019000F90120812064FC01208388E290E029811C
:1001A000FC0120838BE290E02BE230E0F90120811A
:1001B0002068FC01208300008BE290E02BE230E01D
:1001C000F90120812F77FC01208381E090E00E94DB
:1001D000320100000F90DF91CF910895CF93DF930C
:1001E00000D000D0CDB7DEB78A837C836B830E94BA
:1001F00067008A81898311C0898191E0980F998372
:100200000E941B018B819C819C012F5F3F4F3C838F
:100210002B83FC0180810E94BE008B819C81FC01AC
:100220008081882349F700000F900F900F900F9066
:10023000DF91CF910895CF93DF931F92CDB7DEB7B3
:1002400089838981813128F4898181580E948E00B7
:1002500004C0898181550E948E0000000F90DF91BB
:10026000CF910895CF93DF9300D000D000D0CDB7C9
:10027000DEB79E838D831A82198213C01C821B8273
:1002800006C000008B819C8101969C838B838B81AF
:100290009C8187309340ACF389819A8101969A833F
:1002A000898329813A818D819E812817390734F30A
:1002B000000026960FB6F894DEBF0FBECDBFDF91CB
:1002C000CF910895CF93DF9300D01F92CDB7DEB7C3
:1002D00089837B836A8389818A3031F48A819B8117
:1002E000BC018DE00E94620180EC90E0FC01808105
:1002F000882F90E080729927892BB1F386EC90E0EB
:100300002981FC01208380E090E00F900F900F90F6
:10031000DF91CF910895CF93DF93CDB7DEB781E81A
:1003200090E02BE0FC01208388E890E02DE730E0AE
:10033000FC01318320838FE690E022E0FC012083E2
:1003400084E890E0FC011182108280910E0190916E
:100350000F01A0911001B091110180933101909390
:100360003201A0933301B09334018FE590E02FE583
:1003700030E0F90120812068FC0120830000DF913A
:10038000CF910895CF93DF93CDB7DEB781E890E0AA
:10039000FC0110820000DF91CF910895CF93DF938D
:1003A000CDB7DEB781E0809330010000DF91CF91BF
:1003B00008951F920F9200905F000F9211240090F9
:1003C0005B000F922F933F934F935F936F937F93B5
:1003D0008F939F93AF93BF93EF93FF93CF93DF934D
:1003E000CDB7DEB78091310190913201A0913301F8
:1003F000B09134010197A109B10980933101909323
:100400003201A0933301B093340180913101909176
:100410003201A0913301B0913401892B8A2B8B2BAF
:1004200091F40E94CE0180910E0190910F01A09154
:100430001001B09111018093310190933201A0938A
:100440003301B09334010000DF91CF91FF91EF9120
:10045000BF91AF919F918F917F916F915F914F91DC
:100460003F912F910F9000925B000F9000925F00E0
:100470000F901F901895CF93DF9300D000D0CDB789
:10048000DEB769837A838B839C8389819A81AB8170
:10049000BC8180930E0190930F01A0931001B09343
:1004A000110180910E0190910F01A0911001B09166
:1004B00011018093310190933201A0933301B093E5
:1004C000340100000F900F900F900F90DF91CF91AB
:1004D0000895CF93DF93CDB7DEB780913601909129
:1004E00037018230910509F45CC08330910528F40E
:1004F000009759F0019719F1FDC08330910509F477
:10050000BCC0049709F4D2C0F5C01092390185E04F
:10051000809338011092350185E290E021E0FC01E2
:10052000208380913801882F90E0C0960E94BE0001
:1005300081E090E09093370180933601E0C080E243
:1005400090E0FC018081882F90E08095909599271C
:10055000892B01F580913501813031F485E290E0FD
:1005600022E0FC0120830FC080913501823031F4FC
:1005700085E290E024E0FC01208305C085E290E064
:1005800021E0FC01208381E090E09093370180938B
:100590003601B5C082E090E0909337018093360138
:1005A000AEC080E290E0FC018081882F90E08095D1
:1005B00090959927019739F482E090E09093370164
:1005C000809336019CC085E290E0FC0180818230FE
:1005D00069F580913801893028F4809138018F5F66
:1005E0008093380181E090E00E941B0180913801E6
:1005F000882F90E0C0960E94BE008091380189301B
:10060000A9F562E171E081E090E00E94EE0080E2F5
:1006100090E0FC018081813049F50E94670081E013
:1006200090E0909337018093360120C085E290E0FE
:10063000FC018081813031F085E290E0FC01808115
:100640008430A1F480913801882329F08091380109
:1006500081508093380181E090E00E941B018091DD
:100660003801882F90E0C0960E94BE0083E090E0A1
:10067000909337018093360142C080E290E0FC0104
:100680008081882F90E0809590959927892B39F467
:1006900083E090E0909337018093360130C084E08E
:1006A00090E0909337018093360129C080E290E07A
:1006B000FC018081882F90E0809590959927019783
:1006C00039F484E090E0909337018093360117C0AD
:1006D00085E290E021E0FC01208381E080933901F4
:1006E00081E08093350181E090E090933701809321
:1006F000360105C01092370110923601000080913A
:100700003601909137018230910549F1833091058E
:1007100018F4019739F02AC08330910511F104973C
:1007200011F124C080913901882361F08091350155
:10073000815080933501809135018823B1F4109266
:10074000390113C0809135018F5F8093350180910D
:100750003501823051F481E08093390106C00000F8
:1007600005C0000003C0000001C000000000DF91D0
:10077000CF910895CF93DF93CDB7DEB784E290E0B9
:100780002FEFFC01208385E290E0FC01108281E2E2
:1007900090E0FC01108282E290E02FEFFC012083C8
:1007A00087E290E02FEFFC01208388E290E0FC01DB
:1007B00010828AE290E02FEFFC0120838BE290E030
:1007C000FC0110820E9472001092370110923601D3
:1007D0006CE271E080E090E00E943B020E948B019D
:1007E0000E9469020000809130018823E1F3109299
:0807F0003001F6CFF894FFCFB1
:1007F800000000020000000062010000000001008B
:10080800000057696E6E65722057696E6E657220BA
:10081800436869636B656E2044696E6E657200009B
:00000001FF
